{
  "contractName": "FileStorage",
  "abi": [
    {
      "anonymous": false,
      "inputs": [
        {
          "indexed": true,
          "internalType": "address",
          "name": "user",
          "type": "address"
        },
        {
          "indexed": false,
          "internalType": "string",
          "name": "cid",
          "type": "string"
        },
        {
          "indexed": false,
          "internalType": "string",
          "name": "name",
          "type": "string"
        },
        {
          "indexed": false,
          "internalType": "uint256",
          "name": "timestamp",
          "type": "uint256"
        }
      ],
      "name": "FileUploaded",
      "type": "event"
    },
    {
      "inputs": [
        {
          "internalType": "address",
          "name": "",
          "type": "address"
        },
        {
          "internalType": "uint256",
          "name": "",
          "type": "uint256"
        }
      ],
      "name": "userFiles",
      "outputs": [
        {
          "internalType": "string",
          "name": "cid",
          "type": "string"
        },
        {
          "internalType": "string",
          "name": "name",
          "type": "string"
        },
        {
          "internalType": "uint256",
          "name": "timestamp",
          "type": "uint256"
        }
      ],
      "stateMutability": "view",
      "type": "function",
      "constant": true
    },
    {
      "inputs": [
        {
          "internalType": "string",
          "name": "_cid",
          "type": "string"
        },
        {
          "internalType": "string",
          "name": "_name",
          "type": "string"
        }
      ],
      "name": "uploadFile",
      "outputs": [],
      "stateMutability": "nonpayable",
      "type": "function"
    },
    {
      "inputs": [
        {
          "internalType": "address",
          "name": "_user",
          "type": "address"
        }
      ],
      "name": "getFiles",
      "outputs": [
        {
          "components": [
            {
              "internalType": "string",
              "name": "cid",
              "type": "string"
            },
            {
              "internalType": "string",
              "name": "name",
              "type": "string"
            },
            {
              "internalType": "uint256",
              "name": "timestamp",
              "type": "uint256"
            }
          ],
          "internalType": "struct FileStorage.File[]",
          "name": "",
          "type": "tuple[]"
        }
      ],
      "stateMutability": "view",
      "type": "function",
      "constant": true
    }
  ],
  "bytecode": "0x608060405234801561001057600080fd5b50610d4a806100206000396000f3fe608060405234801561001057600080fd5b50600436106100415760003560e01c8063433bf37b14610046578063718f38a614610076578063996d50bf146100a8575b600080fd5b610060600480360381019061005b919061056e565b6100c4565b60405161006d919061075d565b60405180910390f35b610090600480360381019061008b91906107ab565b61028f565b60405161009f93929190610844565b60405180910390f35b6100c260048036038101906100bd91906109be565b6103e6565b005b60606000808373ffffffffffffffffffffffffffffffffffffffff1673ffffffffffffffffffffffffffffffffffffffff168152602001908152602001600020805480602002602001604051908101604052809291908181526020016000905b82821015610284578382906000526020600020906003020160405180606001604052908160008201805461015790610a65565b80601f016020809104026020016040519081016040528092919081815260200182805461018390610a65565b80156101d05780601f106101a5576101008083540402835291602001916101d0565b820191906000526020600020905b8154815290600101906020018083116101b357829003601f168201915b505050505081526020016001820180546101e990610a65565b80601f016020809104026020016040519081016040528092919081815260200182805461021590610a65565b80156102625780601f1061023757610100808354040283529160200191610262565b820191906000526020600020905b81548152906001019060200180831161024557829003601f168201915b5050505050815260200160028201548152505081526020019060010190610124565b505050509050919050565b600060205281600052604060002081815481106102ab57600080fd5b9060005260206000209060030201600091509150508060000180546102cf90610a65565b80601f01602080910402602001604051908101604052809291908181526020018280546102fb90610a65565b80156103485780601f1061031d57610100808354040283529160200191610348565b820191906000526020600020905b81548152906001019060200180831161032b57829003601f168201915b50505050509080600101805461035d90610a65565b80601f016020809104026020016040519081016040528092919081815260200182805461038990610a65565b80156103d65780601f106103ab576101008083540402835291602001916103d6565b820191906000526020600020905b8154815290600101906020018083116103b957829003601f168201915b5050505050908060020154905083565b600060405180606001604052808481526020018381526020014281525090506000803373ffffffffffffffffffffffffffffffffffffffff1673ffffffffffffffffffffffffffffffffffffffff16815260200190815260200160002081908060018154018082558091505060019003906000526020600020906003020160009091909190915060008201518160000190816104829190610c42565b5060208201518160010190816104989190610c42565b506040820151816002015550503373ffffffffffffffffffffffffffffffffffffffff167fbfefa59b16be4b348ad74254e31f16a631ec47799e24b3cba0ba5df3e9c21cab8484426040516104ef93929190610844565b60405180910390a2505050565b6000604051905090565b600080fd5b600080fd5b600073ffffffffffffffffffffffffffffffffffffffff82169050919050565b600061053b82610510565b9050919050565b61054b81610530565b811461055657600080fd5b50565b60008135905061056881610542565b92915050565b60006020828403121561058457610583610506565b5b600061059284828501610559565b91505092915050565b600081519050919050565b600082825260208201905092915050565b6000819050602082019050919050565b600081519050919050565b600082825260208201905092915050565b60005b838110156106015780820151818401526020810190506105e6565b60008484015250505050565b6000601f19601f8301169050919050565b6000610629826105c7565b61063381856105d2565b93506106438185602086016105e3565b61064c8161060d565b840191505092915050565b6000819050919050565b61066a81610657565b82525050565b6000606083016000830151848203600086015261068d828261061e565b915050602083015184820360208601526106a7828261061e565b91505060408301516106bc6040860182610661565b508091505092915050565b60006106d38383610670565b905092915050565b6000602082019050919050565b60006106f38261059b565b6106fd81856105a6565b93508360208202850161070f856105b7565b8060005b8581101561074b578484038952815161072c85826106c7565b9450610737836106db565b925060208a01995050600181019050610713565b50829750879550505050505092915050565b6000602082019050818103600083015261077781846106e8565b905092915050565b61078881610657565b811461079357600080fd5b50565b6000813590506107a58161077f565b92915050565b600080604083850312156107c2576107c1610506565b5b60006107d085828601610559565b92505060206107e185828601610796565b9150509250929050565b600082825260208201905092915050565b6000610807826105c7565b61081181856107eb565b93506108218185602086016105e3565b61082a8161060d565b840191505092915050565b61083e81610657565b82525050565b6000606082019050818103600083015261085e81866107fc565b9050818103602083015261087281856107fc565b90506108816040830184610835565b949350505050565b600080fd5b600080fd5b7f4e487b7100000000000000000000000000000000000000000000000000000000600052604160045260246000fd5b6108cb8261060d565b810181811067ffffffffffffffff821117156108ea576108e9610893565b5b80604052505050565b60006108fd6104fc565b905061090982826108c2565b919050565b600067ffffffffffffffff82111561092957610928610893565b5b6109328261060d565b9050602081019050919050565b82818337600083830152505050565b600061096161095c8461090e565b6108f3565b90508281526020810184848401111561097d5761097c61088e565b5b61098884828561093f565b509392505050565b600082601f8301126109a5576109a4610889565b5b81356109b584826020860161094e565b91505092915050565b600080604083850312156109d5576109d4610506565b5b600083013567ffffffffffffffff8111156109f3576109f261050b565b5b6109ff85828601610990565b925050602083013567ffffffffffffffff811115610a2057610a1f61050b565b5b610a2c85828601610990565b9150509250929050565b7f4e487b7100000000000000000000000000000000000000000000000000000000600052602260045260246000fd5b60006002820490506001821680610a7d57607f821691505b602082108103610a9057610a8f610a36565b5b50919050565b60008190508160005260206000209050919050565b60006020601f8301049050919050565b600082821b905092915050565b600060088302610af87fffffffffffffffffffffffffffffffffffffffffffffffffffffffffffffffff82610abb565b610b028683610abb565b95508019841693508086168417925050509392505050565b6000819050919050565b6000610b3f610b3a610b3584610657565b610b1a565b610657565b9050919050565b6000819050919050565b610b5983610b24565b610b6d610b6582610b46565b848454610ac8565b825550505050565b600090565b610b82610b75565b610b8d818484610b50565b505050565b5b81811015610bb157610ba6600082610b7a565b600181019050610b93565b5050565b601f821115610bf657610bc781610a96565b610bd084610aab565b81016020851015610bdf578190505b610bf3610beb85610aab565b830182610b92565b50505b505050565b600082821c905092915050565b6000610c1960001984600802610bfb565b1980831691505092915050565b6000610c328383610c08565b9150826002028217905092915050565b610c4b826105c7565b67ffffffffffffffff811115610c6457610c63610893565b5b610c6e8254610a65565b610c79828285610bb5565b600060209050601f831160018114610cac5760008415610c9a578287015190505b610ca48582610c26565b865550610d0c565b601f198416610cba86610a96565b60005b82811015610ce257848901518255600182019150602085019450602081019050610cbd565b86831015610cff5784890151610cfb601f891682610c08565b8355505b6001600288020188555050505b50505050505056fea2646970667358221220b870ffacc3ce0046f098f6b9e13b2b0b65768e1ff126b84d88f2f321c22f81e364736f6c63430008120033",
  "immutableReferences": {},
  "source": "// SPDX-License-Identifier: MIT\r\npragma solidity ^0.8.0;\r\n\r\ncontract FileStorage {\r\n    struct File {\r\n        string cid;\r\n        string name;\r\n        uint256 timestamp;\r\n    }\r\n\r\n    mapping(address => File[]) public userFiles;\r\n\r\n    event FileUploaded(address indexed user, string cid, string name, uint256 timestamp);\r\n\r\n    function uploadFile(string memory _cid, string memory _name) public {\r\n        File memory newFile = File(_cid, _name, block.timestamp);\r\n        userFiles[msg.sender].push(newFile);\r\n        \r\n        emit FileUploaded(msg.sender, _cid, _name, block.timestamp);\r\n    }\r\n\r\n    function getFiles(address _user) public view returns (File[] memory) {\r\n        return userFiles[_user];\r\n    }\r\n}\r\n",
  "sourcePath": "C:\\Users\\ahmed\\Desktop\\Main folder\\Research\\Final\\truffle\\contracts\\FileStorage.sol",
  "compiler": {
    "name": "solc",
    "version": "0.8.18+commit.87f61d96.Emscripten.clang"
  },
  "schemaVersion": "3.4.16",
  "updatedAt": "2025-05-11T06:06:10.630Z",
  "networkType": "ethereum",
  "devdoc": {
    "kind": "dev",
    "methods": {},
    "version": 1
  },
  "userdoc": {
    "kind": "user",
    "methods": {},
    "version": 1
  }
}